8=FIX.4.4|9=99|35=D|49=SENDER|56=TARGET|34=1|52=20231215-10:30:00|44=92233720368.99999999|38=922337203685477.9999|10=072|