8=FIX.4.4|9=63|35=A|49=SENDER|56=TARGET|34=1|52=20231215-10:30:00|98=0|108=30|10=173|56=EVIL|