8=FIX.4.4|9=999|35=D|10=000|