8=FIX.4.4|9=5|35=D|