8=FIX.4.4 9=10 35=D