8=FIXT.1.1|9=119|35=D|49=SENDER|56=TARGET|34=1|52=20231215-10:30:00|11=ORDER123|55=AAPL|54=1|60=20231215-10:30:00|38=100|40=2|44=150.25|10=063|