8=FIX.4.4|9=51|35=0|49=TARGET|56=SENDER|34=3|52=20231215-10:30:00|10=130|