8=FIX.4.2|9=60|35=2|49=TARGET|56=SENDER|34=2|52=20231215-10:30:00|7=1|16=0|10=252|