8=FIXT.1.1|9=122|35=8|49=SENDER|56=TARGET|34=2|52=20231215-10:30:00|37=ORDER123|17=EXEC1|150=0|39=0|55=AAPL|54=1|38=100|14=0|6=0|44=150.25|10=186|