8=FIXT.1.1|9=63|35=A|49=TARGET|56=SENDER|34=1|52=20231215-10:30:00|98=0|108=30|10=251|